{
  "_format": "hh-sol-artifact-1",
  "contractName": "Petitions",
  "sourceName": "contracts/Petitions.sol",
  "abi": [
    {
      "anonymous": false,
      "inputs": [
        {
          "indexed": false,
          "internalType": "uint256",
          "name": "_id",
          "type": "uint256"
        },
        {
          "indexed": false,
          "internalType": "uint256",
          "name": "timeCreated",
          "type": "uint256"
        },
        {
          "indexed": false,
          "internalType": "string",
          "name": "title",
          "type": "string"
        },
        {
          "indexed": false,
          "internalType": "string",
          "name": "ipfsCID",
          "type": "string"
        }
      ],
      "name": "PetitionCreated",
      "type": "event"
    },
    {
      "anonymous": false,
      "inputs": [
        {
          "components": [
            {
              "internalType": "uint256",
              "name": "_id",
              "type": "uint256"
            },
            {
              "internalType": "uint256",
              "name": "votersCount",
              "type": "uint256"
            },
            {
              "internalType": "uint256",
              "name": "timeCreated",
              "type": "uint256"
            },
            {
              "internalType": "string",
              "name": "title",
              "type": "string"
            },
            {
              "internalType": "string",
              "name": "ipfsCID",
              "type": "string"
            }
          ],
          "indexed": false,
          "internalType": "struct Petitions.Petition",
          "name": "_petition",
          "type": "tuple"
        }
      ],
      "name": "PetitionFollowed",
      "type": "event"
    },
    {
      "anonymous": false,
      "inputs": [
        {
          "components": [
            {
              "internalType": "uint256",
              "name": "_id",
              "type": "uint256"
            },
            {
              "internalType": "uint256",
              "name": "votersCount",
              "type": "uint256"
            },
            {
              "internalType": "uint256",
              "name": "timeCreated",
              "type": "uint256"
            },
            {
              "internalType": "string",
              "name": "title",
              "type": "string"
            },
            {
              "internalType": "string",
              "name": "ipfsCID",
              "type": "string"
            }
          ],
          "indexed": false,
          "internalType": "struct Petitions.Petition",
          "name": "_petition",
          "type": "tuple"
        }
      ],
      "name": "PetitionUnfollowed",
      "type": "event"
    },
    {
      "anonymous": false,
      "inputs": [
        {
          "indexed": false,
          "internalType": "uint256",
          "name": "_id",
          "type": "uint256"
        },
        {
          "indexed": false,
          "internalType": "uint256",
          "name": "votersCount",
          "type": "uint256"
        }
      ],
      "name": "UserVoted",
      "type": "event"
    },
    {
      "inputs": [
        {
          "internalType": "string",
          "name": "_title",
          "type": "string"
        },
        {
          "internalType": "string",
          "name": "_ipfsCID",
          "type": "string"
        }
      ],
      "name": "addPetition",
      "outputs": [],
      "stateMutability": "nonpayable",
      "type": "function"
    },
    {
      "inputs": [
        {
          "internalType": "uint256",
          "name": "_petitionId",
          "type": "uint256"
        }
      ],
      "name": "flipFollow",
      "outputs": [],
      "stateMutability": "nonpayable",
      "type": "function"
    },
    {
      "inputs": [
        {
          "internalType": "address",
          "name": "",
          "type": "address"
        },
        {
          "internalType": "uint256",
          "name": "",
          "type": "uint256"
        }
      ],
      "name": "following",
      "outputs": [
        {
          "internalType": "bool",
          "name": "",
          "type": "bool"
        }
      ],
      "stateMutability": "view",
      "type": "function"
    },
    {
      "inputs": [
        {
          "internalType": "uint256",
          "name": "",
          "type": "uint256"
        }
      ],
      "name": "petitions",
      "outputs": [
        {
          "internalType": "uint256",
          "name": "_id",
          "type": "uint256"
        },
        {
          "internalType": "uint256",
          "name": "votersCount",
          "type": "uint256"
        },
        {
          "internalType": "uint256",
          "name": "timeCreated",
          "type": "uint256"
        },
        {
          "internalType": "string",
          "name": "title",
          "type": "string"
        },
        {
          "internalType": "string",
          "name": "ipfsCID",
          "type": "string"
        }
      ],
      "stateMutability": "view",
      "type": "function"
    },
    {
      "inputs": [],
      "name": "petitionsCount",
      "outputs": [
        {
          "internalType": "uint256",
          "name": "",
          "type": "uint256"
        }
      ],
      "stateMutability": "view",
      "type": "function"
    },
    {
      "inputs": [
        {
          "internalType": "uint256",
          "name": "_petitionId",
          "type": "uint256"
        }
      ],
      "name": "vote",
      "outputs": [],
      "stateMutability": "nonpayable",
      "type": "function"
    },
    {
      "inputs": [
        {
          "internalType": "uint256",
          "name": "",
          "type": "uint256"
        },
        {
          "internalType": "address",
          "name": "",
          "type": "address"
        }
      ],
      "name": "voted",
      "outputs": [
        {
          "internalType": "bool",
          "name": "",
          "type": "bool"
        }
      ],
      "stateMutability": "view",
      "type": "function"
    }
  ],
  "bytecode": "0x608060405234801561001057600080fd5b506111e1806100206000396000f3fe608060405234801561001057600080fd5b506004361061007d5760003560e01c8063396199241161005b57806339619924146100d85780633ad50ded146100f45780635277b4ae146101285780639139cda5146101585761007d565b80630121b93f146100825780632126dab71461009e57806335f75e16146100ba575b600080fd5b61009c600480360381019061009791906109ea565b610188565b005b6100b860048036038101906100b391906109ea565b610370565b005b6100c26105a4565b6040516100cf9190610a26565b60405180910390f35b6100f260048036038101906100ed9190610aa6565b6105aa565b005b61010e600480360381019061010991906109ea565b610753565b60405161011f959493929190610bc0565b60405180910390f35b610142600480360381019061013d9190610c7f565b6108a9565b60405161014f9190610cda565b60405180910390f35b610172600480360381019061016d9190610cf5565b6108d8565b60405161017f9190610cda565b60405180910390f35b60028054905081106101cf576040517f08c379a00000000000000000000000000000000000000000000000000000000081526004016101c690610d81565b60405180910390fd5b60008082815260200190815260200160002060003373ffffffffffffffffffffffffffffffffffffffff1673ffffffffffffffffffffffffffffffffffffffff16815260200190815260200160002060009054906101000a900460ff161561026c576040517f08c379a000000000000000000000000000000000000000000000000000000000815260040161026390610ded565b60405180910390fd5b600281815481106102805761027f610e0d565b5b906000526020600020906005020160010160008154809291906102a290610e6b565b9190505550600160008083815260200190815260200160002060003373ffffffffffffffffffffffffffffffffffffffff1673ffffffffffffffffffffffffffffffffffffffff16815260200190815260200160002060006101000a81548160ff0219169083151502179055507f7f45563b4271db9030e6bfb7061ebdc1d50e0f40fd7fce4ca0437b4b7af0f5d0816002838154811061034557610344610e0d565b5b906000526020600020906005020160010154604051610365929190610eb4565b60405180910390a150565b60028054905081106103b7576040517f08c379a00000000000000000000000000000000000000000000000000000000081526004016103ae90610d81565b60405180910390fd5b600160003373ffffffffffffffffffffffffffffffffffffffff1673ffffffffffffffffffffffffffffffffffffffff168152602001908152602001600020600082815260200190815260200160002060009054906101000a900460ff16156104e0576000600160003373ffffffffffffffffffffffffffffffffffffffff1673ffffffffffffffffffffffffffffffffffffffff168152602001908152602001600020600083815260200190815260200160002060006101000a81548160ff0219169083151502179055507f11d1b18ba0d70524a22418f135c89cd411d5a1f6767bccbf75b5c2b606b552a4600282815481106104b8576104b7610e0d565b5b90600052602060002090600502016040516104d391906110c2565b60405180910390a16105a1565b60018060003373ffffffffffffffffffffffffffffffffffffffff1673ffffffffffffffffffffffffffffffffffffffff168152602001908152602001600020600083815260200190815260200160002060006101000a81548160ff0219169083151502179055507fe8088a2a4de651599c496d6be1bdc6f28cd1cf7cedf91ec5e03edec6135d34166002828154811061057d5761057c610e0d565b5b906000526020600020906005020160405161059891906110c2565b60405180910390a15b50565b60035481565b60026040518060a0016040528060028054905081526020016000815260200142815260200186868080601f016020809104026020016040519081016040528093929190818152602001838380828437600081840152601f19601f82011690508083019250505050505050815260200184848080601f016020809104026020016040519081016040528093929190818152602001838380828437600081840152601f19601f82011690508083019250505050505050815250908060018154018082558091505060019003906000526020600020906005020160009091909190915060008201518160000155602082015181600101556040820151816002015560608201518160030190805190602001906106c4929190610907565b5060808201518160040190805190602001906106e1929190610907565b505050600360008154809291906106f790610e6b565b91905055507e83f3b0143b2539fb91ac85dfdf7835570ceee4f69393d7c3841b5f0d5507d2600160028054905061072e91906110e4565b428686868660405161074596959493929190611154565b60405180910390a150505050565b6002818154811061076357600080fd5b906000526020600020906005020160009150905080600001549080600101549080600201549080600301805461079890610f4c565b80601f01602080910402602001604051908101604052809291908181526020018280546107c490610f4c565b80156108115780601f106107e657610100808354040283529160200191610811565b820191906000526020600020905b8154815290600101906020018083116107f457829003601f168201915b50505050509080600401805461082690610f4c565b80601f016020809104026020016040519081016040528092919081815260200182805461085290610f4c565b801561089f5780601f106108745761010080835404028352916020019161089f565b820191906000526020600020905b81548152906001019060200180831161088257829003601f168201915b5050505050905085565b60006020528160005260406000206020528060005260406000206000915091509054906101000a900460ff1681565b60016020528160005260406000206020528060005260406000206000915091509054906101000a900460ff1681565b82805461091390610f4c565b90600052602060002090601f016020900481019282610935576000855561097c565b82601f1061094e57805160ff191683800117855561097c565b8280016001018555821561097c579182015b8281111561097b578251825591602001919060010190610960565b5b509050610989919061098d565b5090565b5b808211156109a657600081600090555060010161098e565b5090565b600080fd5b600080fd5b6000819050919050565b6109c7816109b4565b81146109d257600080fd5b50565b6000813590506109e4816109be565b92915050565b600060208284031215610a00576109ff6109aa565b5b6000610a0e848285016109d5565b91505092915050565b610a20816109b4565b82525050565b6000602082019050610a3b6000830184610a17565b92915050565b600080fd5b600080fd5b600080fd5b60008083601f840112610a6657610a65610a41565b5b8235905067ffffffffffffffff811115610a8357610a82610a46565b5b602083019150836001820283011115610a9f57610a9e610a4b565b5b9250929050565b60008060008060408587031215610ac057610abf6109aa565b5b600085013567ffffffffffffffff811115610ade57610add6109af565b5b610aea87828801610a50565b9450945050602085013567ffffffffffffffff811115610b0d57610b0c6109af565b5b610b1987828801610a50565b925092505092959194509250565b600081519050919050565b600082825260208201905092915050565b60005b83811015610b61578082015181840152602081019050610b46565b83811115610b70576000848401525b50505050565b6000601f19601f8301169050919050565b6000610b9282610b27565b610b9c8185610b32565b9350610bac818560208601610b43565b610bb581610b76565b840191505092915050565b600060a082019050610bd56000830188610a17565b610be26020830187610a17565b610bef6040830186610a17565b8181036060830152610c018185610b87565b90508181036080830152610c158184610b87565b90509695505050505050565b600073ffffffffffffffffffffffffffffffffffffffff82169050919050565b6000610c4c82610c21565b9050919050565b610c5c81610c41565b8114610c6757600080fd5b50565b600081359050610c7981610c53565b92915050565b60008060408385031215610c9657610c956109aa565b5b6000610ca4858286016109d5565b9250506020610cb585828601610c6a565b9150509250929050565b60008115159050919050565b610cd481610cbf565b82525050565b6000602082019050610cef6000830184610ccb565b92915050565b60008060408385031215610d0c57610d0b6109aa565b5b6000610d1a85828601610c6a565b9250506020610d2b858286016109d5565b9150509250929050565b7f496420646f6573206e6f74206578697374000000000000000000000000000000600082015250565b6000610d6b601183610b32565b9150610d7682610d35565b602082019050919050565b60006020820190508181036000830152610d9a81610d5e565b9050919050565b7f5573657220616c726561647920766f7465642074686973207065746974696f6e600082015250565b6000610dd7602083610b32565b9150610de282610da1565b602082019050919050565b60006020820190508181036000830152610e0681610dca565b9050919050565b7f4e487b7100000000000000000000000000000000000000000000000000000000600052603260045260246000fd5b7f4e487b7100000000000000000000000000000000000000000000000000000000600052601160045260246000fd5b6000610e76826109b4565b91507fffffffffffffffffffffffffffffffffffffffffffffffffffffffffffffffff821415610ea957610ea8610e3c565b5b600182019050919050565b6000604082019050610ec96000830185610a17565b610ed66020830184610a17565b9392505050565b60008160001c9050919050565b6000819050919050565b6000610f07610f0283610edd565b610eea565b9050919050565b610f17816109b4565b82525050565b7f4e487b7100000000000000000000000000000000000000000000000000000000600052602260045260246000fd5b60006002820490506001821680610f6457607f821691505b60208210811415610f7857610f77610f1d565b5b50919050565b600082825260208201905092915050565b60008190508160005260206000209050919050565b60008154610fb181610f4c565b610fbb8186610f7e565b94506001821660008114610fd65760018114610fe85761101b565b60ff198316865260208601935061101b565b610ff185610f8f565b60005b8381101561101357815481890152600182019150602081019050610ff4565b808801955050505b50505092915050565b600060a08301600080840154905061103b81610ef4565b6110486000870182610f0e565b506001840154905061105981610ef4565b6110666020870182610f0e565b506002840154905061107781610ef4565b6110846040870182610f0e565b5060038401858303606087015261109b8382610fa4565b9250506004840185830360808701526110b48382610fa4565b925050819250505092915050565b600060208201905081810360008301526110dc8184611024565b905092915050565b60006110ef826109b4565b91506110fa836109b4565b92508282101561110d5761110c610e3c565b5b828203905092915050565b82818337600083830152505050565b60006111338385610b32565b9350611140838584611118565b61114983610b76565b840190509392505050565b60006080820190506111696000830189610a17565b6111766020830188610a17565b8181036040830152611189818688611127565b9050818103606083015261119e818486611127565b905097965050505050505056fea2646970667358221220994b0959da5741db6c5a9ebfeb6eb1b73ec6fe6a87b0f3f9dd88a3b2bb92850d64736f6c63430008090033",
  "linkReferences": {},
  "deployedLinkReferences": {}
}