{
  "_format": "hh-sol-artifact-1",
  "contractName": "Petitions",
  "sourceName": "contracts/Petitions.sol",
  "abi": [
    {
      "anonymous": false,
      "inputs": [
        {
          "indexed": false,
          "internalType": "uint256",
          "name": "_id",
          "type": "uint256"
        }
      ],
      "name": "PetitionCreated",
      "type": "event"
    },
    {
      "anonymous": false,
      "inputs": [
        {
          "components": [
            {
              "internalType": "uint256",
              "name": "_id",
              "type": "uint256"
            },
            {
              "internalType": "uint256",
              "name": "votersCount",
              "type": "uint256"
            },
            {
              "internalType": "uint256",
              "name": "timeCreated",
              "type": "uint256"
            },
            {
              "internalType": "string",
              "name": "title",
              "type": "string"
            },
            {
              "internalType": "string",
              "name": "ipfsCID",
              "type": "string"
            }
          ],
          "indexed": false,
          "internalType": "struct Petitions.Petition",
          "name": "_petition",
          "type": "tuple"
        }
      ],
      "name": "PetitionFollowed",
      "type": "event"
    },
    {
      "anonymous": false,
      "inputs": [
        {
          "components": [
            {
              "internalType": "uint256",
              "name": "_id",
              "type": "uint256"
            },
            {
              "internalType": "uint256",
              "name": "votersCount",
              "type": "uint256"
            },
            {
              "internalType": "uint256",
              "name": "timeCreated",
              "type": "uint256"
            },
            {
              "internalType": "string",
              "name": "title",
              "type": "string"
            },
            {
              "internalType": "string",
              "name": "ipfsCID",
              "type": "string"
            }
          ],
          "indexed": false,
          "internalType": "struct Petitions.Petition",
          "name": "_petition",
          "type": "tuple"
        }
      ],
      "name": "PetitionUnfollowed",
      "type": "event"
    },
    {
      "anonymous": false,
      "inputs": [
        {
          "components": [
            {
              "internalType": "uint256",
              "name": "_id",
              "type": "uint256"
            },
            {
              "internalType": "uint256",
              "name": "votersCount",
              "type": "uint256"
            },
            {
              "internalType": "uint256",
              "name": "timeCreated",
              "type": "uint256"
            },
            {
              "internalType": "string",
              "name": "title",
              "type": "string"
            },
            {
              "internalType": "string",
              "name": "ipfsCID",
              "type": "string"
            }
          ],
          "indexed": false,
          "internalType": "struct Petitions.Petition",
          "name": "_petition",
          "type": "tuple"
        }
      ],
      "name": "UserVoted",
      "type": "event"
    },
    {
      "inputs": [
        {
          "internalType": "string",
          "name": "_title",
          "type": "string"
        },
        {
          "internalType": "string",
          "name": "ipfsCID",
          "type": "string"
        }
      ],
      "name": "addPetition",
      "outputs": [],
      "stateMutability": "nonpayable",
      "type": "function"
    },
    {
      "inputs": [
        {
          "internalType": "uint256",
          "name": "_petitionId",
          "type": "uint256"
        }
      ],
      "name": "flipFollow",
      "outputs": [],
      "stateMutability": "nonpayable",
      "type": "function"
    },
    {
      "inputs": [
        {
          "internalType": "address",
          "name": "",
          "type": "address"
        },
        {
          "internalType": "uint256",
          "name": "",
          "type": "uint256"
        }
      ],
      "name": "following",
      "outputs": [
        {
          "internalType": "bool",
          "name": "",
          "type": "bool"
        }
      ],
      "stateMutability": "view",
      "type": "function"
    },
    {
      "inputs": [
        {
          "internalType": "uint256",
          "name": "",
          "type": "uint256"
        }
      ],
      "name": "petitions",
      "outputs": [
        {
          "internalType": "uint256",
          "name": "_id",
          "type": "uint256"
        },
        {
          "internalType": "uint256",
          "name": "votersCount",
          "type": "uint256"
        },
        {
          "internalType": "uint256",
          "name": "timeCreated",
          "type": "uint256"
        },
        {
          "internalType": "string",
          "name": "title",
          "type": "string"
        },
        {
          "internalType": "string",
          "name": "ipfsCID",
          "type": "string"
        }
      ],
      "stateMutability": "view",
      "type": "function"
    },
    {
      "inputs": [],
      "name": "petitionsCount",
      "outputs": [
        {
          "internalType": "uint256",
          "name": "",
          "type": "uint256"
        }
      ],
      "stateMutability": "view",
      "type": "function"
    },
    {
      "inputs": [
        {
          "internalType": "uint256",
          "name": "_petitionId",
          "type": "uint256"
        }
      ],
      "name": "vote",
      "outputs": [],
      "stateMutability": "nonpayable",
      "type": "function"
    },
    {
      "inputs": [
        {
          "internalType": "uint256",
          "name": "",
          "type": "uint256"
        },
        {
          "internalType": "address",
          "name": "",
          "type": "address"
        }
      ],
      "name": "voted",
      "outputs": [
        {
          "internalType": "bool",
          "name": "",
          "type": "bool"
        }
      ],
      "stateMutability": "view",
      "type": "function"
    }
  ],
  "bytecode": "0x608060405234801561001057600080fd5b50611116806100206000396000f3fe608060405234801561001057600080fd5b506004361061007d5760003560e01c8063396199241161005b57806339619924146100d85780633ad50ded146100f45780635277b4ae146101285780639139cda5146101585761007d565b80630121b93f146100825780632126dab71461009e57806335f75e16146100ba575b600080fd5b61009c600480360381019061009791906109db565b610188565b005b6100b860048036038101906100b391906109db565b61036a565b005b6100c261059e565b6040516100cf9190610a17565b60405180910390f35b6100f260048036038101906100ed9190610a97565b6105a4565b005b61010e600480360381019061010991906109db565b610744565b60405161011f959493929190610bb1565b60405180910390f35b610142600480360381019061013d9190610c70565b61089a565b60405161014f9190610ccb565b60405180910390f35b610172600480360381019061016d9190610ce6565b6108c9565b60405161017f9190610ccb565b60405180910390f35b60028054905081106101cf576040517f08c379a00000000000000000000000000000000000000000000000000000000081526004016101c690610d72565b60405180910390fd5b60008082815260200190815260200160002060003373ffffffffffffffffffffffffffffffffffffffff1673ffffffffffffffffffffffffffffffffffffffff16815260200190815260200160002060009054906101000a900460ff161561026c576040517f08c379a000000000000000000000000000000000000000000000000000000000815260040161026390610dde565b60405180910390fd5b600281815481106102805761027f610dfe565b5b906000526020600020906005020160010160008154809291906102a290610e5c565b9190505550600160008083815260200190815260200160002060003373ffffffffffffffffffffffffffffffffffffffff1673ffffffffffffffffffffffffffffffffffffffff16815260200190815260200160002060006101000a81548160ff0219169083151502179055507f8bdf566cebdc62b43254d6666524d2e8921b1ac0015519572168c591788b92f86002828154811061034457610343610dfe565b5b906000526020600020906005020160405161035f919061108a565b60405180910390a150565b60028054905081106103b1576040517f08c379a00000000000000000000000000000000000000000000000000000000081526004016103a890610d72565b60405180910390fd5b600160003373ffffffffffffffffffffffffffffffffffffffff1673ffffffffffffffffffffffffffffffffffffffff168152602001908152602001600020600082815260200190815260200160002060009054906101000a900460ff16156104da576000600160003373ffffffffffffffffffffffffffffffffffffffff1673ffffffffffffffffffffffffffffffffffffffff168152602001908152602001600020600083815260200190815260200160002060006101000a81548160ff0219169083151502179055507f11d1b18ba0d70524a22418f135c89cd411d5a1f6767bccbf75b5c2b606b552a4600282815481106104b2576104b1610dfe565b5b90600052602060002090600502016040516104cd919061108a565b60405180910390a161059b565b60018060003373ffffffffffffffffffffffffffffffffffffffff1673ffffffffffffffffffffffffffffffffffffffff168152602001908152602001600020600083815260200190815260200160002060006101000a81548160ff0219169083151502179055507fe8088a2a4de651599c496d6be1bdc6f28cd1cf7cedf91ec5e03edec6135d34166002828154811061057757610576610dfe565b5b9060005260206000209060050201604051610592919061108a565b60405180910390a15b50565b60035481565b60026040518060a0016040528060028054905081526020016000815260200142815260200186868080601f016020809104026020016040519081016040528093929190818152602001838380828437600081840152601f19601f82011690508083019250505050505050815260200184848080601f016020809104026020016040519081016040528093929190818152602001838380828437600081840152601f19601f82011690508083019250505050505050815250908060018154018082558091505060019003906000526020600020906005020160009091909190915060008201518160000155602082015181600101556040820151816002015560608201518160030190805190602001906106be9291906108f8565b5060808201518160040190805190602001906106db9291906108f8565b505050600360008154809291906106f190610e5c565b91905055507fb7aa108f46996bbc56cca4185c02d9a2cedfac4be19879ed88480061aa6e602c600160028054905061072991906110ac565b6040516107369190610a17565b60405180910390a150505050565b6002818154811061075457600080fd5b906000526020600020906005020160009150905080600001549080600101549080600201549080600301805461078990610f14565b80601f01602080910402602001604051908101604052809291908181526020018280546107b590610f14565b80156108025780601f106107d757610100808354040283529160200191610802565b820191906000526020600020905b8154815290600101906020018083116107e557829003601f168201915b50505050509080600401805461081790610f14565b80601f016020809104026020016040519081016040528092919081815260200182805461084390610f14565b80156108905780601f1061086557610100808354040283529160200191610890565b820191906000526020600020905b81548152906001019060200180831161087357829003601f168201915b5050505050905085565b60006020528160005260406000206020528060005260406000206000915091509054906101000a900460ff1681565b60016020528160005260406000206020528060005260406000206000915091509054906101000a900460ff1681565b82805461090490610f14565b90600052602060002090601f016020900481019282610926576000855561096d565b82601f1061093f57805160ff191683800117855561096d565b8280016001018555821561096d579182015b8281111561096c578251825591602001919060010190610951565b5b50905061097a919061097e565b5090565b5b8082111561099757600081600090555060010161097f565b5090565b600080fd5b600080fd5b6000819050919050565b6109b8816109a5565b81146109c357600080fd5b50565b6000813590506109d5816109af565b92915050565b6000602082840312156109f1576109f061099b565b5b60006109ff848285016109c6565b91505092915050565b610a11816109a5565b82525050565b6000602082019050610a2c6000830184610a08565b92915050565b600080fd5b600080fd5b600080fd5b60008083601f840112610a5757610a56610a32565b5b8235905067ffffffffffffffff811115610a7457610a73610a37565b5b602083019150836001820283011115610a9057610a8f610a3c565b5b9250929050565b60008060008060408587031215610ab157610ab061099b565b5b600085013567ffffffffffffffff811115610acf57610ace6109a0565b5b610adb87828801610a41565b9450945050602085013567ffffffffffffffff811115610afe57610afd6109a0565b5b610b0a87828801610a41565b925092505092959194509250565b600081519050919050565b600082825260208201905092915050565b60005b83811015610b52578082015181840152602081019050610b37565b83811115610b61576000848401525b50505050565b6000601f19601f8301169050919050565b6000610b8382610b18565b610b8d8185610b23565b9350610b9d818560208601610b34565b610ba681610b67565b840191505092915050565b600060a082019050610bc66000830188610a08565b610bd36020830187610a08565b610be06040830186610a08565b8181036060830152610bf28185610b78565b90508181036080830152610c068184610b78565b90509695505050505050565b600073ffffffffffffffffffffffffffffffffffffffff82169050919050565b6000610c3d82610c12565b9050919050565b610c4d81610c32565b8114610c5857600080fd5b50565b600081359050610c6a81610c44565b92915050565b60008060408385031215610c8757610c8661099b565b5b6000610c95858286016109c6565b9250506020610ca685828601610c5b565b9150509250929050565b60008115159050919050565b610cc581610cb0565b82525050565b6000602082019050610ce06000830184610cbc565b92915050565b60008060408385031215610cfd57610cfc61099b565b5b6000610d0b85828601610c5b565b9250506020610d1c858286016109c6565b9150509250929050565b7f496420646f6573206e6f74206578697374000000000000000000000000000000600082015250565b6000610d5c601183610b23565b9150610d6782610d26565b602082019050919050565b60006020820190508181036000830152610d8b81610d4f565b9050919050565b7f5573657220616c726561647920766f7465642074686973207065746974696f6e600082015250565b6000610dc8602083610b23565b9150610dd382610d92565b602082019050919050565b60006020820190508181036000830152610df781610dbb565b9050919050565b7f4e487b7100000000000000000000000000000000000000000000000000000000600052603260045260246000fd5b7f4e487b7100000000000000000000000000000000000000000000000000000000600052601160045260246000fd5b6000610e67826109a5565b91507fffffffffffffffffffffffffffffffffffffffffffffffffffffffffffffffff821415610e9a57610e99610e2d565b5b600182019050919050565b60008160001c9050919050565b6000819050919050565b6000610ecf610eca83610ea5565b610eb2565b9050919050565b610edf816109a5565b82525050565b7f4e487b7100000000000000000000000000000000000000000000000000000000600052602260045260246000fd5b60006002820490506001821680610f2c57607f821691505b60208210811415610f4057610f3f610ee5565b5b50919050565b600082825260208201905092915050565b60008190508160005260206000209050919050565b60008154610f7981610f14565b610f838186610f46565b94506001821660008114610f9e5760018114610fb057610fe3565b60ff1983168652602086019350610fe3565b610fb985610f57565b60005b83811015610fdb57815481890152600182019150602081019050610fbc565b808801955050505b50505092915050565b600060a08301600080840154905061100381610ebc565b6110106000870182610ed6565b506001840154905061102181610ebc565b61102e6020870182610ed6565b506002840154905061103f81610ebc565b61104c6040870182610ed6565b506003840185830360608701526110638382610f6c565b92505060048401858303608087015261107c8382610f6c565b925050819250505092915050565b600060208201905081810360008301526110a48184610fec565b905092915050565b60006110b7826109a5565b91506110c2836109a5565b9250828210156110d5576110d4610e2d565b5b82820390509291505056fea26469706673582212201f3f346ed41fafc8ef87dc7a35b5e707e534df6fcae5f89697018fd0b6bda9a064736f6c63430008090033",
  "linkReferences": {},
  "deployedLinkReferences": {}
}